{
  "_format": "hh-sol-artifact-1",
  "contractName": "BuyStorage",
  "sourceName": "contracts/BuyStorage.sol",
  "abi": [
    {
      "inputs": [
        {
          "internalType": "string",
          "name": "_role",
          "type": "string"
        }
      ],
      "stateMutability": "nonpayable",
      "type": "constructor"
    },
    {
      "inputs": [
        {
          "internalType": "int256",
          "name": "_day",
          "type": "int256"
        },
        {
          "internalType": "int256",
          "name": "_month",
          "type": "int256"
        },
        {
          "internalType": "int256",
          "name": "_year",
          "type": "int256"
        }
      ],
      "name": "buyGold",
      "outputs": [],
      "stateMutability": "payable",
      "type": "function"
    },
    {
      "inputs": [
        {
          "internalType": "int256",
          "name": "_day",
          "type": "int256"
        },
        {
          "internalType": "int256",
          "name": "_month",
          "type": "int256"
        },
        {
          "internalType": "int256",
          "name": "_year",
          "type": "int256"
        }
      ],
      "name": "buyPreminum",
      "outputs": [],
      "stateMutability": "payable",
      "type": "function"
    },
    {
      "inputs": [],
      "name": "currentRole",
      "outputs": [
        {
          "components": [
            {
              "internalType": "address",
              "name": "userAddress",
              "type": "address"
            },
            {
              "internalType": "string",
              "name": "role",
              "type": "string"
            },
            {
              "internalType": "int256",
              "name": "day",
              "type": "int256"
            },
            {
              "internalType": "int256",
              "name": "month",
              "type": "int256"
            },
            {
              "internalType": "int256",
              "name": "year",
              "type": "int256"
            }
          ],
          "internalType": "struct BuyStorage.UserRole[]",
          "name": "",
          "type": "tuple[]"
        }
      ],
      "stateMutability": "view",
      "type": "function"
    },
    {
      "inputs": [
        {
          "internalType": "uint256",
          "name": "",
          "type": "uint256"
        }
      ],
      "name": "userRoles",
      "outputs": [
        {
          "internalType": "address",
          "name": "userAddress",
          "type": "address"
        },
        {
          "internalType": "string",
          "name": "role",
          "type": "string"
        },
        {
          "internalType": "int256",
          "name": "day",
          "type": "int256"
        },
        {
          "internalType": "int256",
          "name": "month",
          "type": "int256"
        },
        {
          "internalType": "int256",
          "name": "year",
          "type": "int256"
        }
      ],
      "stateMutability": "view",
      "type": "function"
    }
  ],
  "bytecode": "0x60806040523480156200001157600080fd5b5060405162000dc838038062000dc88339818101604052810190620000379190620000f4565b6040518060400160405280600881526020017f7374616e6461727400000000000000000000000000000000000000000000000081525090505062000264565b60006200008d62000087846200016e565b62000145565b905082815260208101848484011115620000ac57620000ab62000244565b5b620000b9848285620001a4565b509392505050565b600082601f830112620000d957620000d86200023f565b5b8151620000eb84826020860162000076565b91505092915050565b6000602082840312156200010d576200010c6200024e565b5b600082015167ffffffffffffffff8111156200012e576200012d62000249565b5b6200013c84828501620000c1565b91505092915050565b60006200015162000164565b90506200015f8282620001da565b919050565b6000604051905090565b600067ffffffffffffffff8211156200018c576200018b62000210565b5b620001978262000253565b9050602081019050919050565b60005b83811015620001c4578082015181840152602081019050620001a7565b83811115620001d4576000848401525b50505050565b620001e58262000253565b810181811067ffffffffffffffff8211171562000207576200020662000210565b5b80604052505050565b7f4e487b7100000000000000000000000000000000000000000000000000000000600052604160045260246000fd5b600080fd5b600080fd5b600080fd5b600080fd5b6000601f19601f8301169050919050565b610b5480620002746000396000f3fe60806040526004361061003f5760003560e01c80631ebe4c8214610044578063488df4a81461006f5780637e11f42e1461008b578063acbd75a7146100a7575b600080fd5b34801561005057600080fd5b506100596100e8565b6040516100669190610978565b60405180910390f35b610089600480360381019061008491906106f1565b61024d565b005b6100a560048036038101906100a091906106f1565b61039f565b005b3480156100b357600080fd5b506100ce60048036038101906100c99190610744565b6104f1565b6040516100df95949392919061091e565b60405180910390f35b60606000805480602002602001604051908101604052809291908181526020016000905b8282101561024457838290600052602060002090600502016040518060a00160405290816000820160009054906101000a900473ffffffffffffffffffffffffffffffffffffffff1673ffffffffffffffffffffffffffffffffffffffff1673ffffffffffffffffffffffffffffffffffffffff16815260200160018201805461019590610a79565b80601f01602080910402602001604051908101604052809291908181526020018280546101c190610a79565b801561020e5780601f106101e35761010080835404028352916020019161020e565b820191906000526020600020905b8154815290600101906020018083116101f157829003601f168201915b5050505050815260200160028201548152602001600382015481526020016004820154815250508152602001906001019061010c565b50505050905090565b6102556105df565b33816000019073ffffffffffffffffffffffffffffffffffffffff16908173ffffffffffffffffffffffffffffffffffffffff16815250506040518060400160405280600881526020017f7072656d696e756d0000000000000000000000000000000000000000000000008152508160200181905250838160400181815250508281606001818152505081816080018181525050600081908060018154018082558091505060019003906000526020600020906005020160009091909190915060008201518160000160006101000a81548173ffffffffffffffffffffffffffffffffffffffff021916908373ffffffffffffffffffffffffffffffffffffffff1602179055506020820151816001019080519060200190610378929190610624565b50604082015181600201556060820151816003015560808201518160040155505050505050565b6103a76105df565b33816000019073ffffffffffffffffffffffffffffffffffffffff16908173ffffffffffffffffffffffffffffffffffffffff16815250506040518060400160405280600481526020017f676f6c64000000000000000000000000000000000000000000000000000000008152508160200181905250838160400181815250508281606001818152505081816080018181525050600081908060018154018082558091505060019003906000526020600020906005020160009091909190915060008201518160000160006101000a81548173ffffffffffffffffffffffffffffffffffffffff021916908373ffffffffffffffffffffffffffffffffffffffff16021790555060208201518160010190805190602001906104ca929190610624565b50604082015181600201556060820151816003015560808201518160040155505050505050565b6000818154811061050157600080fd5b90600052602060002090600502016000915090508060000160009054906101000a900473ffffffffffffffffffffffffffffffffffffffff169080600101805461054a90610a79565b80601f016020809104026020016040519081016040528092919081815260200182805461057690610a79565b80156105c35780601f10610598576101008083540402835291602001916105c3565b820191906000526020600020905b8154815290600101906020018083116105a657829003601f168201915b5050505050908060020154908060030154908060040154905085565b6040518060a00160405280600073ffffffffffffffffffffffffffffffffffffffff168152602001606081526020016000815260200160008152602001600081525090565b82805461063090610a79565b90600052602060002090601f0160209004810192826106525760008555610699565b82601f1061066b57805160ff1916838001178555610699565b82800160010185558215610699579182015b8281111561069857825182559160200191906001019061067d565b5b5090506106a691906106aa565b5090565b5b808211156106c35760008160009055506001016106ab565b5090565b6000813590506106d681610af0565b92915050565b6000813590506106eb81610b07565b92915050565b60008060006060848603121561070a57610709610ada565b5b6000610718868287016106c7565b9350506020610729868287016106c7565b925050604061073a868287016106c7565b9150509250925092565b60006020828403121561075a57610759610ada565b5b6000610768848285016106dc565b91505092915050565b600061077d83836108a8565b905092915050565b61078e81610a00565b82525050565b61079d81610a00565b82525050565b60006107ae826109aa565b6107b881856109cd565b9350836020820285016107ca8561099a565b8060005b8581101561080657848403895281516107e78582610771565b94506107f2836109c0565b925060208a019950506001810190506107ce565b50829750879550505050505092915050565b61082181610a12565b82525050565b61083081610a12565b82525050565b6000610841826109b5565b61084b81856109de565b935061085b818560208601610a46565b61086481610adf565b840191505092915050565b600061087a826109b5565b61088481856109ef565b9350610894818560208601610a46565b61089d81610adf565b840191505092915050565b600060a0830160008301516108c06000860182610785565b50602083015184820360208601526108d88282610836565b91505060408301516108ed6040860182610818565b5060608301516109006060860182610818565b5060808301516109136080860182610818565b508091505092915050565b600060a0820190506109336000830188610794565b8181036020830152610945818761086f565b90506109546040830186610827565b6109616060830185610827565b61096e6080830184610827565b9695505050505050565b6000602082019050818103600083015261099281846107a3565b905092915050565b6000819050602082019050919050565b600081519050919050565b600081519050919050565b6000602082019050919050565b600082825260208201905092915050565b600082825260208201905092915050565b600082825260208201905092915050565b6000610a0b82610a1c565b9050919050565b6000819050919050565b600073ffffffffffffffffffffffffffffffffffffffff82169050919050565b6000819050919050565b60005b83811015610a64578082015181840152602081019050610a49565b83811115610a73576000848401525b50505050565b60006002820490506001821680610a9157607f821691505b60208210811415610aa557610aa4610aab565b5b50919050565b7f4e487b7100000000000000000000000000000000000000000000000000000000600052602260045260246000fd5b600080fd5b6000601f19601f8301169050919050565b610af981610a12565b8114610b0457600080fd5b50565b610b1081610a3c565b8114610b1b57600080fd5b5056fea264697066735822122047efe596326d455dc271ed243992608d92767f058bc57c9e96a0555dad305fe764736f6c63430008070033",
  "linkReferences": {},
  "deployedLinkReferences": {}
}