{
  "_format": "hh-sol-artifact-1",
  "contractName": "BuyStorage",
  "sourceName": "contracts/BuyStorage.sol",
  "abi": [
    {
      "inputs": [
        {
          "internalType": "address payable",
          "name": "ownerAddress",
          "type": "address"
        },
        {
          "internalType": "int256",
          "name": "_day",
          "type": "int256"
        },
        {
          "internalType": "int256",
          "name": "_month",
          "type": "int256"
        },
        {
          "internalType": "int256",
          "name": "_year",
          "type": "int256"
        }
      ],
      "name": "buyGold",
      "outputs": [],
      "stateMutability": "payable",
      "type": "function"
    },
    {
      "inputs": [
        {
          "internalType": "address payable",
          "name": "ownerAddress",
          "type": "address"
        },
        {
          "internalType": "int256",
          "name": "_day",
          "type": "int256"
        },
        {
          "internalType": "int256",
          "name": "_month",
          "type": "int256"
        },
        {
          "internalType": "int256",
          "name": "_year",
          "type": "int256"
        }
      ],
      "name": "buyPreminum",
      "outputs": [],
      "stateMutability": "payable",
      "type": "function"
    },
    {
      "inputs": [],
      "name": "currentRole",
      "outputs": [
        {
          "components": [
            {
              "internalType": "address",
              "name": "userAddress",
              "type": "address"
            },
            {
              "internalType": "string",
              "name": "role",
              "type": "string"
            },
            {
              "internalType": "int256",
              "name": "day",
              "type": "int256"
            },
            {
              "internalType": "int256",
              "name": "month",
              "type": "int256"
            },
            {
              "internalType": "int256",
              "name": "year",
              "type": "int256"
            }
          ],
          "internalType": "struct BuyStorage.UserRole[]",
          "name": "",
          "type": "tuple[]"
        }
      ],
      "stateMutability": "view",
      "type": "function"
    },
    {
      "inputs": [],
      "name": "getBalance",
      "outputs": [
        {
          "internalType": "uint256",
          "name": "",
          "type": "uint256"
        }
      ],
      "stateMutability": "view",
      "type": "function"
    },
    {
      "inputs": [
        {
          "internalType": "uint256",
          "name": "",
          "type": "uint256"
        }
      ],
      "name": "userRoles",
      "outputs": [
        {
          "internalType": "address",
          "name": "userAddress",
          "type": "address"
        },
        {
          "internalType": "string",
          "name": "role",
          "type": "string"
        },
        {
          "internalType": "int256",
          "name": "day",
          "type": "int256"
        },
        {
          "internalType": "int256",
          "name": "month",
          "type": "int256"
        },
        {
          "internalType": "int256",
          "name": "year",
          "type": "int256"
        }
      ],
      "stateMutability": "view",
      "type": "function"
    }
  ],
  "bytecode": "0x608060405234801561001057600080fd5b50610cac806100206000396000f3fe60806040526004361061004a5760003560e01c8063035db8dc1461004f57806312065fe01461006b5780631ebe4c8214610096578063716a3f4d146100c1578063acbd75a7146100dd575b600080fd5b610069600480360381019061006491906107e2565b61011e565b005b34801561007757600080fd5b506100806102bf565b60405161008d9190610aae565b60405180910390f35b3480156100a257600080fd5b506100ab6102c7565b6040516100b89190610a8c565b60405180910390f35b6100db60048036038101906100d691906107e2565b61042c565b005b3480156100e957600080fd5b5061010460048036038101906100ff9190610849565b6105cd565b604051610115959493929190610a32565b60405180910390f35b6101266106bb565b8473ffffffffffffffffffffffffffffffffffffffff166108fc6611c37937e080009081150290604051600060405180830381858888f19350505050158015610173573d6000803e3d6000fd5b5033816000019073ffffffffffffffffffffffffffffffffffffffff16908173ffffffffffffffffffffffffffffffffffffffff16815250506040518060400160405280600481526020017f676f6c64000000000000000000000000000000000000000000000000000000008152508160200181905250838160400181815250508281606001818152505081816080018181525050600081908060018154018082558091505060019003906000526020600020906005020160009091909190915060008201518160000160006101000a81548173ffffffffffffffffffffffffffffffffffffffff021916908373ffffffffffffffffffffffffffffffffffffffff1602179055506020820151816001019080519060200190610297929190610700565b5060408201518160020155606082015181600301556080820151816004015550505050505050565b600047905090565b60606000805480602002602001604051908101604052809291908181526020016000905b8282101561042357838290600052602060002090600502016040518060a00160405290816000820160009054906101000a900473ffffffffffffffffffffffffffffffffffffffff1673ffffffffffffffffffffffffffffffffffffffff1673ffffffffffffffffffffffffffffffffffffffff16815260200160018201805461037490610bba565b80601f01602080910402602001604051908101604052809291908181526020018280546103a090610bba565b80156103ed5780601f106103c2576101008083540402835291602001916103ed565b820191906000526020600020905b8154815290600101906020018083116103d057829003601f168201915b505050505081526020016002820154815260200160038201548152602001600482015481525050815260200190600101906102eb565b50505050905090565b8373ffffffffffffffffffffffffffffffffffffffff166108fc6618de76816d80009081150290604051600060405180830381858888f19350505050158015610479573d6000803e3d6000fd5b506104826106bb565b33816000019073ffffffffffffffffffffffffffffffffffffffff16908173ffffffffffffffffffffffffffffffffffffffff16815250506040518060400160405280600881526020017f7072656d696e756d0000000000000000000000000000000000000000000000008152508160200181905250838160400181815250508281606001818152505081816080018181525050600081908060018154018082558091505060019003906000526020600020906005020160009091909190915060008201518160000160006101000a81548173ffffffffffffffffffffffffffffffffffffffff021916908373ffffffffffffffffffffffffffffffffffffffff16021790555060208201518160010190805190602001906105a5929190610700565b5060408201518160020155606082015181600301556080820151816004015550505050505050565b600081815481106105dd57600080fd5b90600052602060002090600502016000915090508060000160009054906101000a900473ffffffffffffffffffffffffffffffffffffffff169080600101805461062690610bba565b80601f016020809104026020016040519081016040528092919081815260200182805461065290610bba565b801561069f5780601f106106745761010080835404028352916020019161069f565b820191906000526020600020905b81548152906001019060200180831161068257829003601f168201915b5050505050908060020154908060030154908060040154905085565b6040518060a00160405280600073ffffffffffffffffffffffffffffffffffffffff168152602001606081526020016000815260200160008152602001600081525090565b82805461070c90610bba565b90600052602060002090601f01602090048101928261072e5760008555610775565b82601f1061074757805160ff1916838001178555610775565b82800160010185558215610775579182015b82811115610774578251825591602001919060010190610759565b5b5090506107829190610786565b5090565b5b8082111561079f576000816000905550600101610787565b5090565b6000813590506107b281610c31565b92915050565b6000813590506107c781610c48565b92915050565b6000813590506107dc81610c5f565b92915050565b600080600080608085870312156107fc576107fb610c1b565b5b600061080a878288016107a3565b945050602061081b878288016107b8565b935050604061082c878288016107b8565b925050606061083d878288016107b8565b91505092959194509250565b60006020828403121561085f5761085e610c1b565b5b600061086d848285016107cd565b91505092915050565b600061088283836109ad565b905092915050565b61089381610b2f565b82525050565b6108a281610b2f565b82525050565b60006108b382610ad9565b6108bd8185610afc565b9350836020820285016108cf85610ac9565b8060005b8581101561090b57848403895281516108ec8582610876565b94506108f783610aef565b925060208a019950506001810190506108d3565b50829750879550505050505092915050565b61092681610b53565b82525050565b61093581610b53565b82525050565b600061094682610ae4565b6109508185610b0d565b9350610960818560208601610b87565b61096981610c20565b840191505092915050565b600061097f82610ae4565b6109898185610b1e565b9350610999818560208601610b87565b6109a281610c20565b840191505092915050565b600060a0830160008301516109c5600086018261088a565b50602083015184820360208601526109dd828261093b565b91505060408301516109f2604086018261091d565b506060830151610a05606086018261091d565b506080830151610a18608086018261091d565b508091505092915050565b610a2c81610b7d565b82525050565b600060a082019050610a476000830188610899565b8181036020830152610a598187610974565b9050610a68604083018661092c565b610a75606083018561092c565b610a82608083018461092c565b9695505050505050565b60006020820190508181036000830152610aa681846108a8565b905092915050565b6000602082019050610ac36000830184610a23565b92915050565b6000819050602082019050919050565b600081519050919050565b600081519050919050565b6000602082019050919050565b600082825260208201905092915050565b600082825260208201905092915050565b600082825260208201905092915050565b6000610b3a82610b5d565b9050919050565b6000610b4c82610b5d565b9050919050565b6000819050919050565b600073ffffffffffffffffffffffffffffffffffffffff82169050919050565b6000819050919050565b60005b83811015610ba5578082015181840152602081019050610b8a565b83811115610bb4576000848401525b50505050565b60006002820490506001821680610bd257607f821691505b60208210811415610be657610be5610bec565b5b50919050565b7f4e487b7100000000000000000000000000000000000000000000000000000000600052602260045260246000fd5b600080fd5b6000601f19601f8301169050919050565b610c3a81610b41565b8114610c4557600080fd5b50565b610c5181610b53565b8114610c5c57600080fd5b50565b610c6881610b7d565b8114610c7357600080fd5b5056fea2646970667358221220393473f558310281a2f1f0724f08f2f56e0cec4425f6b887af09372617e1eff164736f6c63430008070033",
  "linkReferences": {},
  "deployedLinkReferences": {}
}